:100000000C9448000C9423040C9468040C94AA04E7
:100010000C9465000C9465000C9465000C946500CC
:100020000C9465000C9465000C9476050C944F05B7
:100030000C9465000C9465000C9465000C946500AC
:100040000C9465000C9465000C9465000C9465009C
:100050000C9465004E414E494E495459494E46CD87
:10006000CCCC3D0AD7233C17B7D13877CC2B32956F
:1000700095E6241FB14F0A000020410000C842004D
:10008000401C4620BCBE4CCA1B0E5AAEC59D740017
:1000900011241FBECFE5D8E0DEBFCDBF10E0A0E643
:1000A000B0E0E2EBF3E102C005900D92A836B10793
:1000B000D9F720E0A8E6B0E001C01D92A338B2074E
:1000C000E1F70E9487020C94D7090C940000CF92AC
:1000D000DF92EF92FF92CF93C0906000D0906100CA
:1000E000E0906200F090630020E030E046E952E4E6
:1000F000C701B6010E940A068823A4F48091650016
:10010000813381F420E030E040EA50E4C701B601D9
:100110000E949E056093600070936100809362006E
:100120009093630060916000709161008091620023
:10013000909163000E948106DC01CB014AE064E7F4
:1001400070E00E94DF076091740080E090E00E9400
:10015000F0036091750081E090E00E94F003C1E33C
:10016000C093670061E382E090E00E94F00382E0C8
:1001700090E00E94FC038093670083E090E00E947F
:10018000FC0380936600C09365008299FECF1092B5
:100190007100109270006AC010926F0010926E0091
:1001A00026C0829999CF82B38E7F826082BB809174
:1001B0007400805385BB83EC99E00197F1F700C090
:1001C000000080917500805385BB82B38C7F82BB19
:1001D00083EC99E00197F1F700C0000080916E0078
:1001E00090916F00019690936F0080936E008091C4
:1001F0006E0090916F004997A0F210926F001092DC
:100200006E0025C0829968CF82B3836082BB8091E3
:100210007400805385BB83EC99E00197F1F700C02F
:10022000000080917500805385BB82B3836082BBE0
:1002300083EC99E00197F1F700C0000080916E0017
:1002400090916F00019690936F0080936E00809163
:100250006E0090916F004997A8F280917000909184
:1002600071000196909371008093700080917000EE
:1002700090917100059708F48FCF80E3809365001B
:10028000CF91FF90EF90DF90CF900895CF92DF92C3
:10029000EF92FF92CF93C0906000D0906100E09009
:1002A0006200F090630020E030E04CE052E4C701CF
:1002B000B6010E9469071816A4F480916500813385
:1002C00081F420E030E040EA50E4C701B6010E942A
:1002D0009D0560936000709361008093620090932D
:1002E0006300609160007091610080916200909164
:1002F00063000E948106DC01CB014AE064E770E004
:100300000E94DF076091740080E090E00E94F0039B
:100310006091750081E090E00E94F003C1E3C0931A
:10032000670061E384E190E00E94F00382E090E0E6
:100330000E94FC038093670083E090E00E94FC032E
:1003400080936600C09365008399FECF1092710080
:10035000109270006AC010926F0010926E0026C05A
:10036000839999CF82B38E7F826082BB8091740023
:10037000805385BB83EC99E00197F1F700C0000042
:1003800080917500805385BB82B38C7F82BB83ECE8
:1003900099E00197F1F700C0000080916E00909104
:1003A0006F00019690936F0080936E0080916E00B5
:1003B00090916F004997A0F210926F0010926E001A
:1003C00025C0839968CF82B3836082BB809174001B
:1003D000805385BB83EC99E00197F1F700C00000E2
:1003E00080917500805385BB82B3836082BB83ECB0
:1003F00099E00197F1F700C0000080916E009091A4
:100400006F00019690936F0080936E0080916E0054
:1004100090916F004997A8F28091700090917100BF
:10042000019690937100809370008091700090917C
:100430007100059708F48FCF80E380936500CF911A
:10044000FF90EF90DF90CF9008958091640081330A
:1004500061F4B299FECF0E9409040E944E040E94EA
:10046000440580E3809364000895B299FECF0E9412
:1004700005040E944A040E94400581E380936400C1
:10048000089580917200909173000196909373008B
:100490008093720080916C0090916D000196909312
:1004A0006D0080936C0086EF0E9448058091720079
:1004B000909173000A9751F580E30E94DC039093BA
:1004C000760080937500BC0180E090E00E94B70642
:1004D00020E030E040EA50E40E946E0720E030EC7B
:1004E0004FE754E40E940F062AE037ED43E25CE355
:1004F0000E940F06609368007093690080936A0001
:1005000090936B0010927300109272000895CF9335
:10051000DF931F92CDB7DEB787B38B7F87BB8FE0AA
:1005200084BB83E781BB0E94D50381E492E00E94F3
:100530004A050E94280586EF0E9448050E94400552
:1005400087E690E00E941E040E9411040E940504A8
:1005500086E491E00E9463040E9456040E944A04CB
:1005600085E292E00E94A5040E949B040E948F04F1
:100570000E94D1048BE792E90197F1F700C00000D7
:10058000609168007091690080916A0090916B00A1
:100590000E94810664327105ECF4609160007091F4
:1005A000610080916200909163000E948106DC01ED
:1005B000CB014AE064E770E00E94DF0760917400BD
:1005C00080E090E00E94F0036091750081E090E08F
:1005D0000E94F00380E090E00E94FC03809374008E
:1005E00081E090E00E94FC038093750084E790E036
:1005F0000E94DB076093600070936100809362004B
:100600009093630080916400803329F482B3836007
:100610008F7882BBF7CF60916800709169008091FC
:100620006A0090916B000E9481066432710564F04B
:1006300082E090E00E94FC038093670083E090E0FA
:100640000E94FC038093660080916700813309F06B
:1006500080C0609168007091690080916A009091FB
:100660006B000E9481068B016091600070916100B7
:1006700080916200909163000E948106061717071F
:10068000C4F4809166008033A1F480916C00909155
:100690006D008336910540F092B380E1892782BBDB
:1006A00010926D0010926C0082B380628F7B82BBCF
:1006B00050C06017710754F480916600803331F4A4
:1006C00082B380618F7D806482BB43C081E380936D
:1006D000660061E383E090E00E94F00382B38F78CC
:1006E00082BB609168007091690080916A0090916E
:1006F0006B000E9481068B01C0906000D090610069
:10070000E0906200F090630020E030E040EA50E4C6
:10071000C701B6010E949D050E94810660177107FE
:100720004CF080E38093660060E383E090E00E94F9
:10073000F0030FC0C701B6010E9481066017710760
:1007400044F480E38093660060E383E090E00E94DD
:10075000F003609168007091690080916A00909147
:100760006B000E948106DC01CB014AE0BE016F5F95
:100770007F4F0E94DF0782B38E7F826082BB8981B8
:10078000805385BB83EC99E00197F1F700C000002E
:100790008A81805385BB82B38C7F82BB83EC99E0D6
:1007A0000197F1F700C000002DCF8EEF8ABB80E4E7
:1007B00087B987E886B9089597B18F70982B97B954
:1007C00086B1806486B9349BFECF83E08A95F1F7C9
:1007D000000024B135B180E0932F820F911D089560
:1007E000E199FECF9FBB8EBB6DBB8CB384608CBB8D
:1007F0008CB382608CBB0895E199FECF9FBB8EBB0A
:100800008CB381608CBB8DB308958BB780648BBF34
:1008100008958BB78F7B8BBF08958AB780648ABF9A
:10082000089585B7816085BF85B7826085BF0E94C6
:1008300009040E94D5040E940D04089590937A0043
:100840008093790008951F920F920FB60F92112492
:100850002F933F934F935F936F937F938F939F93C8
:10086000AF93BF93EF93FF93E0917900F0917A00FB
:100870000995FF91EF91BF91AF919F918F917F91DA
:100880006F915F914F913F912F910F900FBE0F90FD
:100890001F9018958BB780688BBF08958BB78F77A3
:1008A0008BBF08958AB780688ABF089585B7846032
:1008B00085BF85B7886085BF0E944E040E94D5041D
:1008C0000E945204089590937C0080937B000895C9
:1008D0001F920F920FB60F9211242F933F934F93B5
:1008E0005F936F937F938F939F93AF93BF93EF9398
:1008F000FF93E0917B00F0917C000995FF91EF91CF
:10090000BF91AF919F918F917F916F915F914F9127
:100910003F912F910F900FBE0F901F9018958BB79E
:1009200080628BBF08958BB78F7D8BBF08958AB788
:1009300080628ABF089584B7806484BF0E94930454
:100940000E94D5040E9497040895909378008093A4
:10095000770008951F920F920FB60F9211242F93D4
:100960003F934F935F936F937F938F939F93AF9337
:10097000BF93EF93FF93E0917700F0917800099592
:10098000FF91EF91BF91AF919F918F917F916F9167
:100990005F914F913F912F910F900FBE0F901F903D
:1009A00018958FB780688FBF08958FB78F778FBFE7
:1009B0000895813069F028F0823089F08330B1F0F9
:1009C000089583B78F7B83BF83B7877F83BF0895E5
:1009D00083B7806483BF83B7877F83BF089583B75E
:1009E0008F7B83BF83B7886083BF089583B780649C
:1009F00083BF83B7886083BF0895813069F028F092
:100A0000823089F08330B1F0089583B78F7E83BF41
:100A100083B78F7D83BF089583B7806183BF83B71A
:100A20008F7D83BF089583B78F7E83BF83B7806236
:100A300083BF089583B7806183BF83B7806283BF1C
:100A4000089593B7987F93BF93B7892B83BF089579
:100A500080E00E94D90485E00E94210580E00E9488
:100A6000FD0489B78D7F89BF89B78E7F89BF88B71D
:100A70008D7F88BF88B78E7F88BF12BE1CBE089549
:100A800089B7816089BF089589B78E7F89BF08952E
:100A900082BF08959093800080937F0008951F92F5
:100AA0000F920FB60F9211242F933F934F935F93A2
:100AB0006F937F938F939F93AF93BF93EF93FF9326
:100AC000E0917F00F09180000995FF91EF91BF9137
:100AD000AF919F918F917F916F915F914F913F91D6
:100AE0002F910F900FBE0F901F9018951F920F928D
:100AF0000FB60F9211242F933F934F935F936F93F1
:100B00007F938F939F93AF93BF93EF93FF93E09166
:100B10007D00F0917E000995FF91EF91BF91AF911B
:100B20009F918F917F916F915F914F913F912F9105
:100B30000F900FBE0F901F9018955058BB27AA27F3
:100B40000E94B5050C942F070E94210738F00E94DF
:100B5000280720F039F49F3F19F426F40C941E075F
:100B60000EF4E095E7FB0C941807E92F0E9440076C
:100B700058F3BA17620773078407950720F079F4D2
:100B8000A6F50C9462070EF4E0950B2EBA2FA02D5B
:100B90000B01B90190010C01CA01A0011124FF272A
:100BA000591B99F0593F50F4503E68F11A16F04025
:100BB000A22F232F342F4427585FF3CF4695379524
:100BC0002795A795F0405395C9F77EF41F16BA0BE9
:100BD000620B730B840BBAF09150A1F0FF0FBB1F97
:100BE000661F771F881FC2F70EC0BA0F621F731FE0
:100BF000841F48F4879577956795B795F7959E3F3D
:100C000008F0B0CF9395880F08F09927EE0F9795CD
:100C1000879508950E94F40608F481E008950E94E3
:100C200023060C942F070E94280758F00E942107E2
:100C300040F029F45F3F29F00C94180751110C94EF
:100C400063070C941E070E94400768F39923B1F3D1
:100C5000552391F3951B550BBB27AA2762177307E2
:100C6000840738F09F5F5F4F220F331F441FAA1F76
:100C7000A9F335D00E2E3AF0E0E832D09150504032
:100C8000E695001CCAF72BD0FE2F29D0660F771FE0
:100C9000881FBB1F261737074807AB07B0E809F0C6
:100CA000BB0B802DBF01FF2793585F4F3AF09E3F4B
:100CB000510578F00C9418070C9463075F3FE4F338
:100CC000983ED4F3869577956795B795F7959F5F8E
:100CD000C9F7880F911D9695879597F90895E1E0DA
:100CE000660F771F881FBB1F621773078407BA0739
:100CF00020F0621B730B840BBA0BEE1F88F7E09594
:100D000008950E9488066894B1110C9463070895B1
:100D10000E94480788F09F5798F0B92F9927B7513C
:100D2000B0F0E1F0660F771F881F991F1AF0BA958F
:100D3000C9F714C0B13091F00E946207B1E0089584
:100D40000C946207672F782F8827B85F39F0B93F76
:100D5000CCF3869577956795B395D9F73EF4909542
:100D60008095709561957F4F8F4F9F4F0895E894C0
:100D700009C097FB3EF490958095709561957F4FE3
:100D80008F4F9F4F9923A9F0F92F96E9BB27939591
:100D9000F695879577956795B795F111F8CFFAF4A1
:100DA000BB0F11F460FF1BC06F5F7F4F8F4F9F4FD2
:100DB00016C0882311F096E911C0772321F09EE830
:100DC000872F762F05C0662371F096E8862F70E096
:100DD00060E02AF09A95660F771F881FDAF7880F70
:100DE0009695879597F90895990F0008550FAA0BC6
:100DF000E0E8FEEF16161706E807F907C0F012162E
:100E00001306E407F50798F0621B730B840B950B30
:100E100039F40A2661F0232B242B252B21F4089585
:100E20000A2609F4A140A6958FEF811D811D089522
:100E300097F99F6780E870E060E008959FEF80EC8D
:100E4000089500240A941616170618060906089530
:100E500000240A9412161306140605060895092E96
:100E60000394000C11F4882352F0BB0F40F4BF2B05
:100E700011F460FF04C06F5F7F4F8F4F9F4F089545
:100E800057FD9058440F551F59F05F3F71F047953B
:100E9000880F97FB991F61F09F3F79F08795089520
:100EA000121613061406551FF2CF4695F1DF08C03F
:100EB000161617061806991FF1CF8695710561055C
:100EC00008940895E894BB2766277727CB0197F904
:100ED00008950E94F40608F48FEF08950E94810798
:100EE0000C942F070E94210738F00E94280720F059
:100EF000952311F00C9418070C941E0711240C94E0
:100F000063070E94400770F3959FC1F3950F50E06F
:100F1000551F629FF001729FBB27F00DB11D639FAB
:100F2000AA27F00DB11DAA1F649F6627B00DA11D51
:100F3000661F829F2227B00DA11D621F739FB00DF7
:100F4000A11D621F839FA00D611D221F749F332767
:100F5000A00D611D231F849F600D211D822F762F00
:100F60006A2F11249F5750409AF0F1F088234AF0DD
:100F7000EE0FFF1FBB1F661F771F881F9150504049
:100F8000A9F79E3F510580F00C9418070C94630755
:100F90005F3FE4F3983ED4F3869577956795B795D0
:100FA000F795E7959F5FC1F7FE2B880F911D9695EA
:100FB000879597F90895662777270C940408BB272F
:100FC0004A3031F4992322F4BDE2909581959F4FE8
:100FD0000C94EB07BB27FB015527AA27880F991F05
:100FE000AA1FA41710F0A41B83955051B9F7A05D58
:100FF000AA3308F0A95DA193009779F7B111B193D5
:101000001192CB010C947309A0E0B0E0EAE0F8E0A3
:101010000C949709EC016B016115710519F0FB0146
:10102000918380837E01FFEFEF1AFF0A0881802FF2
:1010300090E00E945209892B11F0E701F3CF0D32A5
:1010400039F47E0182E0E80EF11C098111E008C04C
:101050000B3229F47E0192E0E90EF11C098110E0C7
:10106000E701219743E050E06CE570E0CE010E947B
:101070005B09892BC1F4239645E050E067E570E0F9
:10108000CE010E945B09892B09F42596C114D10475
:1010900019F0F601D183C0831111F6C060E070E051
:1010A00080E89FE7FAC043E050E064E570E0CE01DD
:1010B0000E945B09892B59F4C114D10409F4E9C0D9
:1010C000F2E0EF0EF11CF601F182E082E2C020E0D6
:1010D00030E0A901C0E0D0E0F70180EDA82EA00E1D
:1010E00089E08A1530F1912F9260B92E812F887096
:1010F00012FF04C0811124C0219622C081112197C2
:10110000A5E0B0E00E948609DC01CB01880F991FA1
:10111000AA1FBB1F9C01AD012A0D311D411D511D90
:10112000283989E93807480789E1580748F01660E7
:1011300006C09EEFA9120AC013FD40C01860B12E70
:101140008FEFE81AF80A00811B2DC6CF802F8F7D04
:101150008534A1F580818D3211F4106106C08B3287
:1011600021F0319661E070E004C08181329662E046
:1011700070E080538A3018F0E61BF70B1FC060E068
:1011800070E060389CE079075CF4DB01AA0FBB1FBC
:10119000AA0FBB1F6A0F7B1F660F771F680F711D99
:1011A0003196DF0111978C9180538A3050F314FFF0
:1011B00003C0719561957109C60FD71F11FF08C053
:1011C000C114D10429F0CF010197F60191838083E6
:1011D000CA01B9010E94B706212F2370233019F0EC
:1011E0004B015C0106C04B015C01B7FAB094B7F843
:1011F000B09420E030E0A901C501B4010E940A06C4
:10120000882309F43EC0D7FF06C0D195C195D10906
:1012100003E710E002C00BE810E06801F8E1CF1A24
:10122000D10890E2E92EF12CCE15DF0574F0F8011B
:101230002591359145915491C501B4010E946E07E5
:101240004B015C01CE19DF09EFCF04501109F59471
:10125000E7940C151D0541F78A2D880F8B2D881FEB
:101260008F3F49F020E030E0A901C501B4010E94A0
:101270000A06811106C082E290E09093820080937A
:101280008100C501B40109C060E070E080E89FEF13
:1012900004C060E070E080EC9FE7CDB7DEB7ECE023
:1012A0000C94B30991110C948309803219F0895080
:1012B0008550C8F70895FB01DC014150504088F08B
:1012C0008D9181341CF08B350CF4805E6591613416
:1012D0001CF06B350CF4605E861B611171F3990B89
:1012E0000895881BFCCFDC01FC01672F71917723E7
:1012F000E1F7329704C07C916D9370836291AE17D1
:10130000BF07C8F308959927882708950E94C80940
:10131000A59F900DB49F900DA49F800D911D112449
:1013200008952F923F924F925F926F927F928F9289
:101330009F92AF92BF92CF92DF92EF92FF920F9364
:101340001F93CF93DF93CDB7DEB7CA1BDB0B0FB66E
:10135000F894DEBF0FBECDBF09942A88398848882B
:101360005F846E847D848C849B84AA84B984C884C1
:10137000DF80EE80FD800C811B81AA81B981CE0FB8
:10138000D11D0FB6F894DEBF0FBECDBFED0108959D
:10139000A29FB001B39FC001A39F700D811D1124B6
:1013A000911DB29F700D811D1124911D0895F89417
:0213B000FFCF6D
:0813B2000000704231303030C0
:00000001FF
