:100000000C9448000C94B5000C94FA000C943C013C
:100010000C9465000C9465000C9465000C946500CC
:100020000C9465000C9465000C949F050C94780565
:100030000C9465000C9465000C9465000C946500AC
:100040000C9465000C9465000C9465000C9465009C
:100050000C9465004E414E494E495459494E46CD87
:10006000CCCC3D0AD7233C17B7D13877CC2B32956F
:1000700095E6241FB14F0A000020410000C842004D
:10008000401C4620BCBE4CCA1B0E5AAEC59D740017
:1000900011241FBECFE5D8E0DEBFCDBF10E0A0E643
:1000A000B0E0E4E0F4E102C005900D92A636B1079D
:1000B000D9F720E0A6E6B0E001C01D92A738B2074C
:1000C000E1F70E94A3030C94000A0C9400008EEF49
:1000D0008ABB80E487B987E886B9089597B18F70A5
:1000E000982B97B986B1806486B9349BFECF83E0A4
:1000F0008A95F1F7000024B135B180E0932F820F8B
:10010000911D0895E199FECF9FBB8EBB6DBB8CB353
:1001100084608CBB8CB382608CBB0895E199FECF68
:100120009FBB8EBB8CB381608CBB8DB308958BB7A6
:1001300080648BBF08958BB78F7B8BBF08958AB780
:1001400080648ABF089585B7816085BF85B7826066
:1001500085BF0E949B000E9467010E949F00089536
:1001600090937B0080937A0008951F920F920FB6B0
:100170000F9211242F933F934F935F936F937F932D
:100180008F939F93AF93BF93EF93FF93E0917A0088
:10019000F0917B000995FF91EF91BF91AF919F91F5
:1001A0008F917F916F915F914F913F912F910F9020
:1001B0000FBE0F901F9018958BB780688BBF089566
:1001C0008BB78F778BBF08958AB780688ABF0895F1
:1001D00085B7846085BF85B7886085BF0E94E000D1
:1001E0000E9467010E94E400089590937D0080932F
:1001F0007C0008951F920F920FB60F9211242F9337
:100200003F934F935F936F937F938F939F93AF939E
:10021000BF93EF93FF93E0917C00F0917D000995EF
:10022000FF91EF91BF91AF919F918F917F916F91CE
:100230005F914F913F912F910F900FBE0F901F90A4
:1002400018958BB780628BBF08958BB78F7D8BBF5E
:1002500008958AB780628ABF089584B7806484BF96
:100260000E9425010E9467010E9429010895909330
:1002700079008093780008951F920F920FB60F9225
:1002800011242F933F934F935F936F937F938F939B
:100290009F93AF93BF93EF93FF93E0917800F0911A
:1002A00079000995FF91EF91BF91AF919F918F9147
:1002B0007F916F915F914F913F912F910F900FBE62
:1002C0000F901F9018958FB780688FBF08958FB7D4
:1002D0008F778FBF0895809164009091650001979A
:1002E00039F4B299FECF109265001092640008951F
:1002F00081E090E090936500809364000895CF9230
:10030000DF92EF92FF92C0906000D0906100E09089
:100310006200F090630020E030E046E952E4C7015B
:10032000B6010E9433068823B4F480916E00909148
:100330006F00019781F420E030E040EA50E4C7010B
:10034000B6010E94C70560936000709361008093BE
:1003500062009093630060916000709161008091F1
:100360006200909163000E94AA06DC01CB014AE082
:100370006EE770E00E94080860917E0080E090E0E7
:100380000E94820060917F0081E090E00E948200E4
:1003900081E090E0909373008093720061E384E1C8
:1003A00090E00E94820084E190E00E948E0090E044
:1003B000C09790937300809372008EE190E00E944A
:1003C0008E0090E0C09790937100809370008299A6
:1003D000FECF109269001092680074C081E090E036
:1003E00090936F0080936E001092670010926600E9
:1003F00026C0829988CF82B38E7F826082BB809133
:100400007E00805385BB83EC99E00197F1F700C033
:10041000000080917F00805385BB82B38C7F82BBBC
:1004200083EC99E00197F1F700C00000809166002D
:100430009091670001969093670080936600809189
:100440006600909167000D97A4F2109267001092D9
:10045000660025C0829957CF82B3836082BB8091AA
:100460007E00805385BB83EC99E00197F1F700C0D3
:10047000000080917F00805385BB82B3836082BB84
:1004800083EC99E00197F1F700C0000080916600CD
:100490009091670001969093670080936600809129
:1004A0006600909167000D97ACF210926F00109269
:1004B0006E008091680090916900019690936900A8
:1004C00080936800809168009091690009970CF40E
:1004D00085CFFF90EF90DF90CF900895CF92DF927D
:1004E000EF92FF92C0906000D0906100E0906200B7
:1004F000F090630020E030E04CE052E4C701B60128
:100500000E9492071816B4F480916E0090916F00CB
:10051000019781F420E030E040EA50E4C701B601E1
:100520000E94C60560936000709361008093620032
:10053000909363006091600070916100809162000F
:10054000909163000E94AA06DC01CB014AE06EE7AD
:1005500070E00E94080860917E0080E090E00E94B8
:10056000820060917F0081E090E00E94820081E043
:1005700090E0909373008093720061E384E190E0D7
:100580000E94820084E190E00E948E0090E0C0977B
:1005900090937300809372008EE190E00E948E0031
:1005A00090E0C09790937100809370008399FECF84
:1005B000109269001092680074C081E090E09093FE
:1005C0006F0080936E00109267001092660026C044
:1005D000839988CF82B38E7F826082BB80917E00B8
:1005E000805385BB83EC99E00197F1F700C00000D0
:1005F00080917F00805385BB82B38C7F82BB83EC6C
:1006000099E00197F1F700C0000080916600909199
:100610006700019690936700809366008091660062
:10062000909167000D97A4F21092670010926600F7
:1006300025C0839957CF82B3836082BB80917E00AF
:10064000805385BB83EC99E00197F1F700C000006F
:1006500080917F00805385BB82B3836082BB83EC33
:1006600099E00197F1F700C0000080916600909139
:100670006700019690936700809366008091660002
:10068000909167000D97ACF210926F0010926E007F
:100690008091680090916900019690936900809321
:1006A0006800809168009091690009970CF485CFEB
:1006B000FF90EF90DF90CF90089580917600909119
:1006C0007700019690937700809376008091740074
:1006D000909175000196909375008093740086EF59
:1006E0000E94710580917600909177000A9751F5EC
:1006F00080E30E946E009093800080937F00BC0195
:1007000080E090E00E94E00620E030E040EA50E423
:100710000E94970720E030EC4FE754E40E9438062F
:100720002AE037ED43E25CE30E94380660936A00FA
:1007300070936B0080936C0090936D001092770023
:10074000109276000895CF93DF931F92CDB7DEB756
:1007500087B38B7F87BB8FE084BB83E781BB0E941D
:1007600067008DE593E00E9473050E94550586EFB2
:100770000E9471050E946D058FE791E00E94B00014
:100780000E94A3000E9497008EE692E00E94F5006E
:100790000E94E8000E94DC008BE691E00E94370195
:1007A0000E942D010E9421010E9463018BE792E9C2
:1007B0000197F1F700C0000060916A0070916B0032
:1007C00080916C0090916D000E94AA0664327105C0
:1007D000ECF46091600070916100809162009091F2
:1007E00063000E94AA06DC01CB014AE06EE770E0DC
:1007F0000E94080860917E0080E090E00E948200E4
:1008000060917F0081E090E00E94820080E090E0B3
:100810000E948E0080937E0081E090E00E948E0016
:1008200080937F008EE790E00E9404086093600050
:1008300070936100809362009093630080916400E4
:1008400090916500892B29F482B383608F7882BBF5
:10085000F5CF60916A0070916B0080916C0090916F
:100860006D000E94AA0664327105A4F084E190E054
:100870000E948E0090E0C097909373008093720066
:100880008EE190E00E948E0090E0C09790937100FE
:10089000809370008091720090917300019709F02D
:1008A00089C060916A0070916B0080916C0090919A
:1008B0006D000E94AA068B0160916000709161003A
:1008C00080916200909163000E94AA0606171707A4
:1008D000D4F48091700090917100892BA1F48091E3
:1008E0007400909175008336910544F092B380E1D5
:1008F000892782BB109275001092740082B38062C7
:100900008F7B82BB57C06017710764F480917000C1
:1009100090917100892B31F482B380618F7D806466
:1009200082BB48C081E090E090937100809370009A
:1009300061E38EE190E00E94820082B38F7882BBF7
:1009400060916A0070916B0080916C0090916D00D5
:100950000E94AA068B01C0906000D0906100E090D8
:100960006200F090630020E030E040EA50E4C7010C
:10097000B6010E94C6050E94AA066017710754F0CE
:10098000109271001092700060E38EE190E00E947E
:10099000820010C0C701B6010E94AA066017710745
:1009A0004CF4109271001092700060E38EE190E0C0
:1009B0000E94820060916A0070916B0080916C00CF
:1009C00090916D000E94AA06DC01CB014AE0BE01B5
:1009D0006F5F7F4F0E94080882B38E7F826082BB68
:1009E0008981805385BB83EC99E00197F1F700C0C2
:1009F00000008A81805385BB82B38C7F82BB83ECED
:100A000099E00197F1F700C0000018CF813069F03C
:100A100028F0823089F08330B1F0089583B78F7B5E
:100A200083BF83B7877F83BF089583B7806483BF05
:100A300083B7877F83BF089583B78F7B83BF83B7D7
:100A4000886083BF089583B7806483BF83B788605D
:100A500083BF0895813069F028F0823089F08330B7
:100A6000B1F0089583B78F7E83BF83B78F7D83BF37
:100A7000089583B7806183BF83B78F7D83BF089557
:100A800083B78F7E83BF83B7806283BF089583B7A8
:100A9000806183BF83B7806283BF089593B7987FD7
:100AA00093BF93B7892B83BF089580E00E9406050A
:100AB00085E00E944E0580E00E942A0589B78D7F5F
:100AC00089BF89B78E7F89BF88B78D7F88BF88B778
:100AD0008E7F88BF12BE1CBE089589B7816089BF12
:100AE000089582BF089590938400809383000895B1
:100AF0001F920F920FB60F9211242F933F934F9393
:100B00005F936F937F938F939F93AF93BF93EF9375
:100B1000FF93E0918300F09184000995FF91EF919C
:100B2000BF91AF919F918F917F916F915F914F9105
:100B30003F912F910F900FBE0F901F9018951F920D
:100B40000F920FB60F9211242F933F934F935F9301
:100B50006F937F938F939F93AF93BF93EF93FF9385
:100B6000E0918100F09182000995FF91EF91BF9192
:100B7000AF919F918F917F916F915F914F913F9135
:100B80002F910F900FBE0F901F9018955058BB27B4
:100B9000AA270E94DE050C9458070E944A0738F0E5
:100BA0000E94510720F039F49F3F19F426F40C9469
:100BB00047070EF4E095E7FB0C944107E92F0E94EC
:100BC000690758F3BA17620773078407950720F07F
:100BD00079F4A6F50C948B070EF4E0950B2EBA2F42
:100BE000A02D0B01B90190010C01CA01A001112433
:100BF000FF27591B99F0593F50F4503E68F11A16DF
:100C0000F040A22F232F342F4427585FF3CF46956F
:100C100037952795A795F0405395C9F77EF41F1691
:100C2000BA0B620B730B840BBAF09150A1F0FF0F5B
:100C3000BB1F661F771F881FC2F70EC0BA0F621F47
:100C4000731F841F48F4879577956795B795F79537
:100C50009E3F08F0B0CF9395880F08F09927EE0FCC
:100C60009795879508950E941D0708F481E00895DF
:100C70000E944C060C9458070E94510758F00E949D
:100C80004A0740F029F45F3F29F00C9441075111C5
:100C90000C948C070C9447070E94690768F399230A
:100CA000B1F3552391F3951B550BBB27AA27621768
:100CB0007307840738F09F5F5F4F220F331F441F75
:100CC000AA1FA9F335D00E2E3AF0E0E832D09150A9
:100CD0005040E695001CCAF72BD0FE2F29D0660F96
:100CE000771F881FBB1F261737074807AB07B0E8D9
:100CF00009F0BB0B802DBF01FF2793585F4F3AF0DF
:100D00009E3F510578F00C9441070C948C075F3F8F
:100D1000E4F3983ED4F3869577956795B795F79564
:100D20009F5FC9F7880F911D9695879597F908954C
:100D3000E1E0660F771F881FBB1F621773078407E8
:100D4000BA0720F0621B730B840BBA0BEE1F88F7F7
:100D5000E09508950E94B1066894B1110C948C0737
:100D600008950E94710788F09F5798F0B92F99272E
:100D7000B751B0F0E1F0660F771F881F991F1AF086
:100D8000BA95C9F714C0B13091F00E948B07B1E059
:100D900008950C948B07672F782F8827B85F39F058
:100DA000B93FCCF3869577956795B395D9F73EF41F
:100DB00090958095709561957F4F8F4F9F4F0895C7
:100DC000E89409C097FB3EF49095809570956195E5
:100DD0007F4F8F4F9F4F9923A9F0F92F96E9BB279B
:100DE0009395F695879577956795B795F111F8CF17
:100DF000FAF4BB0F11F460FF1BC06F5F7F4F8F4F82
:100E00009F4F16C0882311F096E911C0772321F077
:100E10009EE8872F762F05C0662371F096E8862F0F
:100E200070E060E02AF09A95660F771F881FDAF766
:100E3000880F9695879597F90895990F0008550F93
:100E4000AA0BE0E8FEEF16161706E807F907C0F050
:100E500012161306E407F50798F0621B730B840B58
:100E6000950B39F40A2661F0232B242B252B21F432
:100E700008950A2609F4A140A6958FEF811D811DD2
:100E8000089597F99F6780E870E060E008959FEF0C
:100E900080EC089500240A94161617061806090611
:100EA000089500240A9412161306140605060895E0
:100EB000092E0394000C11F4882352F0BB0F40F468
:100EC000BF2B11F460FF04C06F5F7F4F8F4F9F4FA8
:100ED000089557FD9058440F551F59F05F3F71F02A
:100EE0004795880F97FB991F61F09F3F79F0879591
:100EF0000895121613061406551FF2CF4695F1DF1A
:100F000008C0161617061806991FF1CF86957105A9
:100F1000610508940895E894BB2766277727CB01DD
:100F200097F908950E941D0708F48FEF08950E9415
:100F3000AA070C9458070E944A0738F00E945107EC
:100F400020F0952311F00C9441070C9447071124CD
:100F50000C948C070E94690770F3959FC1F3950F5D
:100F600050E0551F629FF001729FBB27F00DB11D2D
:100F7000639FAA27F00DB11DAA1F649F6627B00DBD
:100F8000A11D661F829F2227B00DA11D621F739FA6
:100F9000B00DA11D621F839FA00D611D221F749FB4
:100FA0003327A00D611D231F849F600D211D822FFB
:100FB000762F6A2F11249F5750409AF0F1F0882322
:100FC0004AF0EE0FFF1FBB1F661F771F881F91504F
:100FD0005040A9F79E3F510580F00C9441070C94B6
:100FE0008C075F3FE4F3983ED4F386957795679539
:100FF000B795F795E7959F5FC1F7FE2B880F911D79
:101000009695879597F90895662777270C942D086C
:10101000BB274A3031F4992322F4BDE290958195A3
:101020009F4F0C941408BB27FB015527AA27880F54
:10103000991FAA1FA41710F0A41B83955051B9F74C
:10104000A05DAA3308F0A95DA193009779F7B111CB
:10105000B1931192CB010C949C09A0E0B0E0E3E3C2
:10106000F8E00C94C009EC016B016115710519F0F1
:10107000FB01918380837E01FFEFEF1AFF0A088155
:10108000802F90E00E947B09892B11F0E701F3CFBC
:101090000D3239F47E0182E0E80EF11C098111E085
:1010A00008C00B3229F47E0192E0E90EF11C09819F
:1010B00010E0E701219743E050E06CE570E0CE01DD
:1010C0000E948409892BC1F4239645E050E067E52E
:1010D00070E0CE010E948409892B09F42596C11481
:1010E000D10419F0F601D183C0831111F6C060E07C
:1010F00070E080E89FE7FAC043E050E064E570E00C
:10110000CE010E948409892B59F4C114D10409F439
:10111000E9C0F2E0EF0EF11CF601F182E082E2C0DC
:1011200020E030E0A901C0E0D0E0F70180EDA82E7A
:10113000A00E89E08A1530F1912F9260B92E812F8F
:10114000887012FF04C0811124C0219622C0811131
:101150002197A5E0B0E00E94AF09DC01CB01880F28
:10116000991FAA1FBB1F9C01AD012A0D311D411DF6
:10117000511D283989E93807480789E1580748F09F
:10118000166006C09EEFA9120AC013FD40C0186089
:10119000B12E8FEFE81AF80A00811B2DC6CF802FE1
:1011A0008F7D8534A1F580818D3211F4106106C0E8
:1011B0008B3221F0319661E070E004C0818132967B
:1011C00062E070E080538A3018F0E61BF70B1FC016
:1011D00060E070E060389CE079075CF4DB01AA0F06
:1011E000BB1FAA0FBB1F6A0F7B1F660F771F680FFD
:1011F000711D3196DF0111978C9180538A3050F325
:1012000014FF03C0719561957109C60FD71F11FFB7
:1012100008C0C114D10429F0CF010197F6019183D0
:101220008083CA01B9010E94E006212F2370233078
:1012300019F04B015C0106C04B015C01B7FAB09498
:10124000B7F8B09420E030E0A901C501B4010E94D4
:101250003306882309F43EC0D7FF06C0D195C19557
:10126000D10903E710E002C00BE810E06801F8E1E3
:10127000CF1AD10890E2E92EF12CCE15DF0574F0DB
:10128000F8012591359145915491C501B4010E9411
:1012900097074B015C01CE19DF09EFCF045011090C
:1012A000F594E7940C151D0541F78A2D880F8B2DB9
:1012B000881F8F3F49F020E030E0A901C501B4014B
:1012C0000E943306811106C082E290E0909386006E
:1012D00080938500C501B40109C060E070E080E83A
:1012E0009FEF04C060E070E080EC9FE7CDB7DEB711
:1012F000ECE00C94DC0991110C94AC09803219F0EB
:1013000089508550C8F70895FB01DC0141505040D9
:1013100088F08D9181341CF08B350CF4805E6591E2
:1013200061341CF06B350CF4605E861B611171F347
:10133000990B0895881BFCCFDC01FC01672F71918C
:101340007723E1F7329704C07C916D9370836291AB
:10135000AE17BF07C8F308959927882708950E94FC
:10136000F109A59F900DB49F900DA49F800D911D34
:10137000112408952F923F924F925F926F927F9225
:101380008F929F92AF92BF92CF92DF92EF92FF9295
:101390000F931F93CF93DF93CDB7DEB7CA1BDB0B41
:1013A0000FB6F894DEBF0FBECDBF09942A883988E6
:1013B00048885F846E847D848C849B84AA84B984ED
:1013C000C884DF80EE80FD800C811B81AA81B981F9
:1013D000CE0FD11D0FB6F894DEBF0FBECDBFED010D
:1013E0000895A29FB001B39FC001A39F700D811DFE
:1013F0001124911DB29F700D811D1124911D08951E
:04140000F894FFCF8E
:061404000000704201002F
:00000001FF
